:100000000C9459000C9412020C9437020C948C003E
:100010000C948C000C948C000C948C000C948C0030
:100020000C948C000C948C000C948C000C948C0020
:100030000C948C000C948C000C948C000C948C0010
:100040000C948C000C948C000C94DC090C948C00A7
:100050000C948C000C948C000C948C000C948C00F0
:100060000C948C000C948C00464154414C20455219
:10007000524F523A204241444953525F766563746D
:100080002063616C6C65642C20756E70726F6365A3
:100090007373656420496E746572727570742E0A8C
:1000A00053544F5020457865637574696F6E2E0AFE
:1000B0000000832D8093CB0784B78093CC0714BEB8
:1000C0000FB6F894A89580916000886180936000D5
:1000D000109260000FBE11241FBECFEFD8E0DEBF2C
:1000E000CDBF14E0A0E0B1E0E2E8FDE102C0059080
:1000F0000D92A830B107D9F727E0A8E0B4E001C01D
:100100001D92AB3CB207E1F70E948E000C94BF0E2B
:100110000E94C2000C94BF0E0C94D1070E945C0296
:100120000C948703809100010E945D017C018CE2A8
:1001300091E00E94030C10E0C0E0D0E0809101014A
:10014000E114F10491F00E947301CD2B21F48DE3B1
:1001500091E00E94030C111105C084E491E00E941B
:10016000030C11E0C1E0D0E0E9CF0E9486012197A5
:1001700021F484E591E00E94030C1123E9F28CE55F
:1001800091E0D7CF0F931F93CF93DF93CDB7DEB717
:10019000C058D1090FB6F894DEBF0FBECDBF63E0E3
:1001A000809101010E94240100E010E022E930E08A
:1001B00041E062E0809100010E949C018091000179
:1001C0000E94000240E850E0BE016F5F7F4F80E078
:1001D00090E00E94CD0580E090E0C058DF4F0FB660
:1001E000F894DEBF0FBECDBFDF91CF911F910F916D
:1001F0000895823321F0833321F481E0089580E073
:1002000008958FEF089591E09093800724E0829FF6
:10021000C0011124DC01A85FBB4FED91FC91119747
:1002200012968D919C911397099580917A049091E3
:100230007B04892B31F00E94AB03109280070E944F
:10024000BA08109280070895982F9F7021E030E03F
:1002500001C0220F9A95EAF76230D9F0633079F045
:10026000611128C082958F7093E0899FF00111245D
:1002700081A12095822381A382A1282317C0829582
:100280008F7093E0899FF001112481A1282B21A375
:100290000EC082958F7093E0899FF001112481A197
:1002A000922F9095892381A382A1282B22A380E0FD
:1002B00090E008958FEF9FEF0895E82FE295EF709B
:1002C00063E0E69FF001112420A18F7041E050E02F
:1002D000BA0102C0660F771F8A95E2F7CB0130E0C2
:1002E000822393230895E82FE295EF7093E0E99F2E
:1002F000F001112432A1282F2F7081E090E001C07D
:10030000880F2A95EAF7832B82A30895E82FE295B8
:10031000EF7093E0E99FF001112432A1282F2F7094
:1003200081E090E002C0880F991F2A95E2F780953E
:100330009095832382A30895CF92DF92EF92FF924C
:100340000F931F93CF93DF93D82EC62EC42F79011E
:100350000E94F900D82F8C2D8D7F09F046C0D7FD63
:1003600044C0C43008F041C06C2D8D2D0E94240182
:10037000F8942CB3ED2F0D2E000CFF0B81E090E0D4
:100380000D2E01C0880F0A94EAF7922F982B9CBB80
:100390009DB3892B8DBBD430D4F420916900BF016B
:1003A000660F771F83E090E0062E01C0880F0A9445
:1003B000EAF78095822380936900809169004C2F31
:1003C00001C0440F6A95EAF7482B40936900EE0F8D
:1003D000FF1FEE0FFF1FE85FFB4FF182E0821383E8
:1003E0000283789480E090E002C08FEF9FEFDF916E
:1003F000CF911F910F91FF90EF90DF90CF900895D4
:100400000E94F9004CB321E030E0B90102C0660F50
:10041000771F8A95E2F7CB01462B4CBB9DB3892B06
:100420008DBB08951F920F920FB60F9211242F9338
:100430003F934F935F936F937F938F939F93AF936C
:10044000BF93EF93FF9380E00E940301FF91EF9130
:10045000BF91AF919F918F917F916F915F914F91DC
:100460003F912F910F900FBE0F901F9018951F92E4
:100470000F920FB60F9211242F933F934F935F93D8
:100480006F937F938F939F93AF93BF93EF93FF935C
:1004900081E00E940301FF91EF91BF91AF919F9185
:1004A0008F917F916F915F914F913F912F910F901D
:1004B0000FBE0F901F901895E1E6F0E080E8808372
:1004C00010820E944B090E94C3070E945B090C9492
:1004D000E20710927B0410927A04A0913604B09146
:1004E0003704209110043091110480E090E020FD49
:1004F00004C0369527950196FACF880F991FFC0105
:10050000EC5EFB4F0190F081E02D0190F081E02D39
:100510003697AE17BF07C9F0109741F012968C912D
:1005200012978A3019F48BE012968C938AE08283BA
:10053000848195819093350480933404F09337043B
:10054000E093360481E090E0089580E090E0089523
:100550000F931F93CF93DF93FC0182816A30E0F108
:100560008A3008F080C09F012A5F3F4F838190E06E
:10057000880F991FDC01AC5EBB4FCD91DC911197C8
:10058000209751F048815981578346830D90BC9143
:10059000A02D2D933C9302C037832683DC01AC5EF3
:1005A000BB4F2D933C9381E090E0038002C0880F05
:1005B000991F0A94E2F7092E000CAA0BBB0B0091BD
:1005C0001004109111042091120430911304802B17
:1005D000912BA22BB32B3FC08A3008F444C0A381D7
:1005E000B0E0AA0FBB1FAC5EBB4FCD91DC91119761
:1005F000209769F088819981C817D90719F41D924D
:100600001C9205C0DC018D919C9199838883238184
:10061000A22FB0E0AA0FBB1FAC5EBB4F8D919C9187
:10062000892B09F581E090E002C0880F991F2A9577
:10063000E2F780959095092E000CAA0BBB0B009158
:10064000100410911104209112043091130480239E
:100650009123A223B3238093100490931104A093B9
:100660001204B09313046283DF91CF911F910F9115
:100670000895E0913604F091370422812A3028F061
:10068000238130E08217930768F40E94F207892BD8
:1006900039F081E090E090937B0480937A04089590
:1006A0000C94540808950E94DC07E0913404F09102
:1006B0003504EE0FFF1FE85CFB4F11821082809122
:1006C0007C0490917D04019790937D0480937C0439
:1006D00060E080913604909137040E94A802109245
:1006E0003704109236040E9450080E94250989E6BA
:1006F00091E09F938F930E94ED0B0E94C2000F9098
:100700000F9080E090E008950E94C207FDCF0E9404
:10071000DC07C0900201D0900301E12CF12C04E829
:1007200013E02CE030E04FE060E870E08EE794E00A
:100730000E94F403C0900401D090050105E713E086
:100740002CE030E047E060E872E08EEF94E00E9439
:10075000F4030E9450080E94DC07E0913604F091F7
:10076000370422812A3070F0E381F0E0EE0FFF1FA2
:10077000EC5EFB4FA081B181109721F02D913C914F
:10078000318320830E94E8070C945408FB012281E6
:100790002A3028F06FEE71E083E00E94B404638198
:1007A000AF014A5F5F4FDC012D913C91211531056E
:1007B00041F0D901169713967C91671710F0C90183
:1007C000F2CF37832683FC01518340830895FC01D7
:1007D000208131812E173F0711F43296F9CF9F0106
:1007E000281B390BC90108952F923F924F925F92B7
:1007F0006F927F928F929F92AF92BF92CF92DF9231
:10080000EF92FF920F931F93CF93DF9300D000D00E
:10081000CDB7DEB740319CF54B013AE1831A910820
:10082000DC01A80DB91DBC83AB83FC0123FF09C00B
:10083000AB81BC81EA17FB0730F4F183E083329689
:10084000F7CF918380831601370158012A834983AA
:100850002B017C010E94DC076C01EAE3F4E001E07B
:1008600010E081919191892B61F00F5F1F4F013250
:100870001105B9F7C6010E94E8078FEB5CC084EE52
:100880005AC0F801EE0FFF1FE85CFB4F8B819C8183
:1008900091838083DC0115961C930E931497940129
:1008A000A701B301C5010E942308EB81FC8191835C
:1008B0008083F58AE48A518E408E378A268A298180
:1008C000238312821782168211861086138612865F
:1008D00015861486178616868FEF9FEF918B808B77
:1008E000138A128A80917C0490917D0401969093E2
:1008F0007D0480937C043A8130FF06C061E08B81E7
:100900009C810E94A80212C06BE08B819C810E9496
:10091000A802FA81F2FD0AC0C6010E94E8072981F7
:10092000822F220F990B0E94390303C0C6010E9437
:10093000E807C80101C09FEF0F900F900F900F9034
:10094000DF91CF911F910F91FF90EF90DF90CF90AB
:10095000BF90AF909F908F907F906F905F904F90DF
:100960003F902F9008950895EB0120917E073091DC
:100970007F07232B09F038C021E030E030937F0758
:1009800020937E07833091F40EB6202D0DB6802D76
:1009900090E0922B9F938F938EEA91E09F938F9399
:1009A0000E94ED0B0F900F900F900F90DF93CF935D
:1009B00085EC91E09F938F930E94ED0B0E94FA04C7
:1009C0008DEE91E09F938F930E94ED0B81EE91E06D
:1009D0009F938F930E94ED0B8DB79EB708960FB62D
:1009E000F8949EBF0FBE8DBF0E94DC070E94B30427
:1009F0000E94BF073F924F925F926F927F928F92B9
:100A00009F92AF92BF92CF92DF92EF92FF920F939D
:100A10001F93CF93DF9300D0CDB7DEB78FE58983E7
:100A200081E58A8381E092E09F938F9387E092E053
:100A30009F938F938CE092E09F938F930E94ED0B96
:100A40009AE3892E94E0992E0F900F900F900F90BB
:100A50000F900F90A12CB12CC12CD12C24E5622E2B
:100A600022E0722EF401019111914F01011511053F
:100A700009F44CC0F8015280E52DF0E0EE0FFF1FA5
:100A8000EA5EFC4F40803180F801E08CF18CCE0CA6
:100A9000DF1C848995890E94E703E81AF90AAE0CE5
:100AA000BF1CF80181818F9380818F9385898F93FB
:100AB00084898F93FF92EF92818D8F93808D8F9396
:100AC00083811F928F9381E090E0F9E0F51510F09B
:100AD00080E090E021E030E02C0F3D1F820F931F5B
:100AE0009F938F933F924F92F80187898F938689C6
:100AF0008F9385818F9384818F937F926F920E94D1
:100B0000ED0B0FB6F894DEBF0FBECDBF3AE78316EC
:100B100034E0930609F0A6CFBF92AF92DF92CF9256
:100B20008FE892E09F938F939F938F9321E932E018
:100B30003F932F939F938F9385E992E09F938F9399
:100B40000E94ED0B0FB6F894DEBF0FBECDBF0F9025
:100B50000F90DF91CF911F910F91FF90EF90DF9059
:100B6000CF90BF90AF909F908F907F906F905F904D
:100B70004F903F900895CF93DF93C5ECD7E06A8103
:100B80007B818EE390E00E94B10B6A817B8180E2E1
:100B900090E0DF91CF910C94B10B2F923F924F9246
:100BA0005F926F927F928F929F92AF92BF92CF92FD
:100BB000DF92EF92FF920F931F93CF93DF93CDB706
:100BC000DEB72C970FB6F894DEBF0FBECDBF3C0149
:100BD0007B018A012DB73EB738872F830E94BB0562
:100BE000A801415051095A8749871E0155E0250E39
:100BF000311C8701C8018E199F09A985BA858A17FA
:100C00009B070CF092C18091C5079091C6070E9486
:100C1000730B97FD8AC18D30910519F08A309105CB
:100C2000E1F4F80110826091C7077091C8078DE068
:100C300090E00E94B10B6091C7077091C8078AE0ED
:100C400090E00E94B10BE016F10609F46BC1F701C8
:100C500080E090E000E010E047C08830910519F096
:100C60008F379105F9F4E016F10621F2D8011E92B2
:100C70008D016091C7077091C80788E090E00E94DD
:100C8000B10B6091C7077091C80780E290E00E94A5
:100C9000B10B6091C7077091C80788E090E00E948F
:100CA000B10BA8CF6801BFEFCB1ADB0AF801808334
:100CB0006091C7077091C8070E94B10B86019ACF57
:100CC0002232B1F43181332341F13C3559F131966F
:100CD00030812313F7CF21812132F8F40F5F1F4FAA
:100CE0002081121644F5119220812132C8F3E8CFF9
:100CF000273249F4E7CFFD01319611962C9122322B
:100D000061F0213258F3DF0120812C35A1F70196E3
:100D1000DF01119621812111EECF8EE293E00E9436
:100D2000030C00C10196AF014E5F5F4F3281332348
:100D3000A1F3FA01CDCF0115110509F4F3C02DB7C8
:100D40003EB73E832D8398012F5F3F4F220F331F05
:100D50004DB75EB7421B530B0FB6F8945EBF0FBE84
:100D60004DBFADB7BEB711966D01F801EE0FFF1F75
:100D7000EA0FFB1F118210824D01AD01B70120E087
:100D800030E0FB01B0806F5F7F4FBB20D1F3B2E258
:100D9000BB1619F067E2B61201C03196DA01ED9385
:100DA000FD93AD01BF013196DB01BC90B110FACFCC
:100DB0002F5F3F4F0217130721F70097D1F0D4019F
:100DC000ED91FD914D013097A1F09F014191442398
:100DD000A1F34C35D1F7D9014C91442339F0D90115
:100DE00011964C9111974D939D01F5CF019769F79D
:100DF000E4CFF601508041807A82698224EF33E0AB
:100E00003C832B83AE014F5F5F4F5A014B87BC86FB
:100E1000D5018D909D905D0181149104A9F0F4019C
:100E200080819181009781F0652D742D0E946A0B5D
:100E3000892B31F4D4011496ED91FC91159709C0DA
:100E4000B6E08B0E911CEBCF2A143B0409F7E0E0CF
:100E5000F0E0309721F0B601C80109955CC0652D1E
:100E6000742D87E493E00E946A0B892B09F047C038
:100E70002CE433E03F932F9388E593E09F938F9387
:100E8000E0E6F3E0FF93EF930E94ED0B8AE693E038
:100E90000E94030C7A82698244EF53E05C834B83A7
:100EA0000B851C850F900F900F900F900F900F9057
:100EB000D801CD90DD908D01C114D10421F420160C
:100EC000310649F1F5CFD6018D919C910097B9F388
:100ED000F60123812F9322812F939F938F9320E6F6
:100EE00033E03F932F930E94ED0B56E0C50ED11CCB
:100EF0000F900F900F900F900F900F90E4CF4F92A4
:100F00005F92E2E9F3E0FF93EF930E94ED0B0F9005
:100F10000F900F900F904D815E810FB6F8945EBFD9
:100F20000FBE4DBF0E94BB0564CE8F8198850FB662
:100F3000F8949EBF0FBE8DBF2C960FB6F894DEBFFF
:100F40000FBECDBFDF91CF911F910F91FF90EF901A
:100F5000DF90CF90BF90AF909F908F907F906F90D9
:100F60005F904F903F902F9008950E94140980E069
:100F700090E008950E94FA0480E090E008950E94B5
:100F8000DC07FFCF0895A8950FB6F894A895809137
:100F90006000886180936000109260000FBE0C9426
:100FA00085091F920F920FB60F9211242D9A68E6B1
:100FB00070E080E00E94B4040FB6802DF894807831
:100FC00090E0089578940FB6802D807890E0089591
:100FD000FF920F93F82E0FB7087FF02AFFBE0F91F4
:100FE000FF9008958091800790E008950E94E207A5
:100FF000A0913604B0913704CD91CDBFDD91DEBF15
:10100000FF91EF91DF91CF91BF91AF919F918F9120
:101010007F916F915F914F913F912F911F910F9110
:10102000FF90EF90DF90CF90BF90AF909F908F9008
:101030007F906F905F904F903F902F901F900F90F8
:101040000FBE0F900895240F351FF90131974FEA15
:10105000408331974EEF408343E553E0319740831F
:1010600031975083319780833197908331971082E5
:10107000319780E8808331971082C9014F9712928F
:10108000E817F907E1F7F901B097608331977083AA
:101090008AE182938F5F8032E1F7C90188970895D2
:1010A0000E9469020E94F6070E94F207892B09F04C
:1010B0005AC00F920FB6F8940F921F9211242F92DC
:1010C0003F924F925F926F927F928F929F92AF92D8
:1010D000BF92CF92DF92EF92FF920F931F932F93C5
:1010E0003F934F935F936F937F938F939F93AF93B0
:1010F000BF93CF93DF93EF93FF93A0913604B0910A
:1011000037040DB60D920EB60D920E946902A091A1
:101110003604B0913704CD91CDBFDD91DEBFFF9194
:10112000EF91DF91CF91BF91AF919F918F917F917F
:101130006F915F914F913F912F911F910F91FF9070
:10114000EF90DF90CF90BF90AF909F908F907F9067
:101150006F905F904F903F902F901F900F900FBE19
:101160000F900895089581E090E090937B04809320
:101170007A0408950F920FB6F8940F921F921124DB
:101180002F923F924F925F926F927F928F929F9297
:10119000AF92BF92CF92DF92EF92FF920F931F9385
:1011A0002F933F934F935F936F937F938F939F936F
:1011B000AF93BF93CF93DF93EF93FF93A091360448
:1011C000B09137040DB60D920EB60D920E946902D1
:1011D000A0913604B0913704CD91CDBFDD91DEBF33
:1011E000FF91EF91DF91CF91BF91AF919F918F913F
:1011F0007F916F915F914F913F912F911F910F912F
:10120000FF90EF90DF90CF90BF90AF909F908F9026
:101210007F906F905F904F903F902F901F900F9016
:101220000FBE0F901895089514BE8AEA90E0382EEC
:101230000E94DC079CE088E10FB6F894A8958093A3
:1012400060000FBE90936000FFCF0895CF93DF93AF
:101250001F92CDB7DEB761E070E0CE0101960E942B
:1012600072098981082E000C990B0F90DF91CF91A4
:101270000895CF93DF931F92CDB7DEB7898361E0E6
:1012800070E0CE0101960E94780980E090E00F9016
:10129000DF91CF9108950E946109E5ECF7E084E1C8
:1012A00091E09383828386E091E09183808386E05E
:1012B00094E00C94030C63E085E10E9424012D98D6
:1012C00008950F931F9302E211E02AE13AE040E80B
:1012D00055E260E070E080E090E00E9486091F9196
:1012E0000F910895AB01BC0182E291E00C942C0AAD
:1012F000CF93DF93EB01AB01BC0180E090E00E9453
:10130000CD09CE01DF91CF91089508950F931F93DA
:10131000CF93DF93E901892BC9F53093C20720935E
:10132000C1071093C4070093C3071092C100109225
:10133000C00086E08093C200DB01CA0180589B4751
:10134000A14EBF4F23E0880F991FAA1FBB1F2A95EC
:10135000D1F79A01AB0164E0220F331F441F551FE0
:101360006A95D1F7BC01CD010E94480B215031098B
:101370003093C5002093C400CD2B11F088E901C043
:1013800088E08093C10080E090E002C08FEF9FEF83
:10139000DF91CF911F910F910895FB01460F571FC9
:1013A000E417F50741F08091C00085FFFCCF8191E3
:1013B0008093C600F5CF08951F920F920FB60F923B
:1013C00011242F933F934F935F936F937F938F934A
:1013D0009F93AF93BF93EF93FF9381E08093800738
:1013E0006091C600E091C107F091C2078091C307E8
:1013F0009091C407099580917A0490917B04892B80
:1014000031F00E94AB03109280070E94BA0810923C
:101410008007FF91EF91BF91AF919F918F917F9145
:101420006F915F914F913F912F910F900FBE0F9051
:101430001F9018950F931F93CF93DF93EC010E9499
:10144000960A8C01CE0108960E94070BC801DF9115
:10145000CF911F910F910895CF92DF92EF92FF925B
:101460000F931F93CF93DF93EC018B017A016C01F3
:1014700088E0C80ED11CA701B801CE010E946C0AF9
:10148000009731F461E070E0C6010E94C20AF3CF18
:10149000DF91CF911F910F91FF90EF90DF90CF9050
:1014A0000895DC018D919C91119714962D913C919A
:1014B0001597A9014F5F5F4F15965C934E93149754
:1014C0001296ED91FC91139731972E233F23FC0147
:1014D000E20FF31F80810895CF92DF92EF92FF9287
:1014E0000F931F93CF93DF937C016A018B01EA0175
:1014F000209781F0F7012481358186819781281713
:10150000390741F0C7010E94510AF80181938F0108
:101510002197EECFC6018C1B9D0BDF91CF911F91C0
:101520000F91FF90EF90DF90CF900895DC01169619
:101530002D913C91179714964D915C9115971296A9
:101540008D919C911397241B350B28173907B9F0FF
:10155000ED91FC91119716962D913C911797A90149
:101560004F5F5F4F17965C934E9316970197282312
:101570003923E20FF31F608380E090E008958FEF3E
:101580009FEF0895EF92FF920F931F93CF93DF93F6
:10159000EC018B010E94DC077C0188819981892BF9
:1015A00041F48FEF9FEF99838883C7010E94E8077A
:1015B0001FC0012B01F1009136041091370462E045
:1015C000C8010E94A80288819981019641F4C8014E
:1015D000069699838883F8011782168204C0B801A1
:1015E000CE010E94C603C7010E94E8070E9454086A
:1015F00081E090E005C0C7010E94E80780E090E02C
:10160000DF91CF911F910F91FF90EF900895EF928E
:10161000FF920F931F93CF93DF938C010E94DC07FF
:101620007C01D801ED91FC91309739F0EF3FBFEF8D
:10163000FB0761F4F80111821082C701DF91CF919D
:101640001F910F91FF90EF900C94E807808191819A
:10165000D8018D939C93EF0126976BE0CE010E94F9
:10166000A802F80180819181892B21F48FEF9FEFEF
:1016700091838083CB81D0E0C7010E94E807CE012F
:10168000DF91CF911F910F91FF90EF900C94390350
:10169000A1E21A2EAA1BBB1BFD010DC0AA1FBB1F76
:1016A000EE1FFF1FA217B307E407F50720F0A21BE8
:1016B000B30BE40BF50B661F771F881F991F1A9455
:1016C00069F760957095809590959B01AC01BD017F
:1016D000CF010895FB01DC018D910190801901106B
:1016E000D9F3990B0895CF93DF93EC012B8120FF61
:1016F00033C026FF0AC02F7B2B838E819F810196EA
:101700009F838E838A8190E029C022FF0FC0E881E9
:10171000F9818081082E000C990B009719F4206242
:101720002B831AC03196F983E8830EC0EA85FB85C6
:10173000099597FF09C02B81019611F080E201C045
:1017400080E1822B8B8308C02E813F812F5F3F4F2A
:101750003F832E83992702C08FEF9FEFDF91CF91B8
:1017600008950F931F93CF93DF93FB01238121FDF6
:1017700003C08FEF9FEF2CC022FF16C04681578118
:10178000248135814217530744F4A081B1819D0122
:101790002F5F3F4F318320838C93268137812F5FCA
:1017A0003F4F3783268314C08B01EC01FB0100847B
:1017B000F185E02D0995892BE1F6D80116968D91DA
:1017C0009C911797019617969C938E931697CE012E
:1017D000DF91CF911F910F910895A0E0B0E0E3EF6A
:1017E000FBE00C94980EAE014B5F5F4FFA016191E4
:1017F0007191AF018091C7079091C8070E94330C87
:10180000E2E00C94B40E0F931F93CF93DF93E0911B
:10181000C707F091C807238121FF1BC08C01D0E0CE
:10182000C0E0F80181918F016091C7077091C807EE
:10183000DB011896ED91FC911997882331F00995F9
:10184000892B79F3DFEFCFEFECCF8AE00995892B75
:1018500019F08FEF9FEF02C08D2F9C2FDF91CF915A
:101860001F910F910895ABE0B0E0E9E3FCE00C9428
:10187000880E6C017B018A01FC011782168283812C
:1018800081FFCCC1CE0101963C01F6019381F701A5
:1018900093FD859193FF81917F01882309F4BAC15B
:1018A000853239F493FD859193FF81917F018532D3
:1018B00029F4B60190E00E94B10BE7CF912C212CC6
:1018C000312CFFE1F315D8F08B3279F038F4803207
:1018D00079F08332A1F4232D20611DC08D3261F097
:1018E000803369F4232D216016C0832D8260382E49
:1018F000E32DE4603E2E2AC0F32DF8601DC037FCB6
:101900002DC020ED280F2A3040F08E32B9F436FC7D
:1019100081C1232D2064322E19C036FE06C08AE014
:10192000989E200D1124922E11C0EAE02E9E200DCB
:101930001124222EF32DF0623F2E08C08C3621F4A4
:10194000832D8068382E02C0883641F4F70193FD5C
:10195000859193FF81917F018111B3CF982F9F7D56
:101960009554933028F40C5F1F4F9FE399830DC06B
:10197000833631F0833771F0833509F059C021C0C7
:10198000F801808189830E5F1F4F88248394912CF6
:10199000530113C02801F2E04F0E511CF801A08042
:1019A000B18036FE03C0692D70E002C06FEF7FEF9B
:1019B000C5010E941F0E4C018201F32DFF773F2EBF
:1019C00016C0280122E0420E511CF801A080B1800F
:1019D00036FE03C0692D70E002C06FEF7FEFC501D6
:1019E0000E94140E4C01F32DF0683F2E820133FC4F
:1019F0001BC0822D90E088169906B0F4B60180E2F3
:101A000090E00E94B10B2A94F4CFF50137FC859148
:101A100037FE81915F01B60190E00E94B10B211069
:101A20002A9421E0821A91088114910471F7E8C088
:101A3000843611F0893641F5F80137FE07C0608120
:101A40007181828193810C5F1F4F08C06081718119
:101A5000072E000C880B990B0E5F1F4FF32DFF769E
:101A60003F2E97FF09C090958095709561957F4FA7
:101A70008F4F9F4FF0683F2E2AE030E0A3010E9475
:101A80002A0E882E861845C0853731F4232D2F7EE7
:101A9000B22E2AE030E025C0932D997FB92E8F36E3
:101AA000C1F018F4883579F0B5C0803719F088375F
:101AB00021F0B0C0E92FE061BE2EB4FE0DC0FB2DB9
:101AC000F460BF2E09C034FE0AC0292F2660B22E52
:101AD00006C028E030E005C020E130E002C020E18F
:101AE00032E0F801B7FE07C0608171818281938185
:101AF0000C5F1F4F06C06081718180E090E00E5F37
:101B00001F4FA3010E942A0E882E8618FB2DFF77F7
:101B10003F2E36FE0DC0232D2E7FA22E891458F4A1
:101B200034FE0BC032FC09C0832D8E7EA82E05C06A
:101B3000B82CA32C03C0B82C01C0B92CA4FE0FC034
:101B4000FE01E80DF11D8081803321F49A2D997EEC
:101B5000A92E09C0A2FE06C0B394B39404C08A2D76
:101B6000867809F0B394A3FC11C0A0FE06C0B2149D
:101B700088F4280C922C9B180EC0B21460F4B601A5
:101B800080E290E00E94B10BB394F7CFB21418F446
:101B90002B1802C0982C212CA4FE10C0B60180E3A3
:101BA00090E00E94B10BA2FE17C0A1FC03C088E721
:101BB00090E002C088E590E0B6010CC08A2D8678DE
:101BC00059F0A1FE02C08BE201C080E2A7FC8DE2C9
:101BD000B60190E00E94B10B891438F4B60180E39D
:101BE00090E00E94B10B9A94F7CF8A94F301E80D2C
:101BF000F11D8081B60190E00E94B10B8110F5CFFC
:101C0000222009F442CEB60180E290E00E94B10B9E
:101C10002A94F6CFF6018681978102C08FEF9FEF5D
:101C20002B96E2E10C94A40EFC01059061507040EB
:101C30000110D8F7809590958E0F9F1F0895FC0195
:101C40006150704001900110D8F7809590958E0FEB
:101C50009F1F0895FA01AA27283051F1203181F100
:101C6000E8946F936E7F6E5F7F4F8F4F9F4FAF4FA4
:101C7000B1E03ED0B4E03CD0670F781F891F9A1FB7
:101C8000A11D680F791F8A1F911DA11D6A0F711D6B
:101C9000811D911DA11D20D009F468943F912AE077
:101CA000269F11243019305D3193DEF6CF0108955F
:101CB000462F4770405D4193B3E00FD0C9F7F6CF90
:101CC000462F4F70405D4A3318F0495D31FD405258
:101CD000419302D0A9F7EACFB4E0A69597958795EE
:101CE00077956795BA95C9F70097610571050895CD
:101CF0009B01AC010A2E0694579547953795279579
:101D0000BA95C9F7620F731F841F951FA01D089510
:101D10002F923F924F925F926F927F928F929F92FB
:101D2000AF92BF92CF92DF92EF92FF920F931F93E9
:101D3000CF93DF93CDB7DEB7CA1BDB0B0FB6F8949A
:101D4000DEBF0FBECDBF09942A88398848885F84DA
:101D50006E847D848C849B84AA84B984C884DF804B
:101D6000EE80FD800C811B81AA81B981CE0FD11D2F
:101D70000FB6F894DEBF0FBECDBFED010895F89405
:021D8000FFCF93
:101D82003215A401A90100000001000000000000BA
:101D920026090000000000020000000039090000CE
:101DA2000000810740000000000000005461736BD6
:101DB20020312E354844205374617274004C4544DE
:101DC200206F6E004D6F74696F6E20646574656379
:101DD200746564004C4544206F6666004D6F7469FB
:101DE2006F6E20656E646564006D61696E28293AC4
:101DF20020546869732069732052494F5421202866
:101E020056657273696F6E3A20323031392E303432
:101E12002D646576656C2D3331332D6765336532FC
:101E220062290A0069646C65006D61696E00537411
:101E320061636B20506F696E7465723A2030782549
:101E42003034780A002A2A2A2052494F54206B65DE
:101E5200726E656C2070616E69633A0A25730A0AB4
:101E6200002A2A2A2068616C7465642E0A0A0046D8
:101E720041494C454420415353455254494F4E2EFB
:101E8200007374617465006E616D65000970696448
:101E9200207C20252D3231737C20252D3973512051
:101EA2007C20707269207C20737461636B2020280F
:101EB200207573656429207C2062617365206164EA
:101EC200647220207C2063757272656E74202020FB
:101ED20020200A0009253369207C20252D32307309
:101EE200207C20252D387320252E3173207C20253F
:101EF2003369207C20253669202825356929207CF4
:101F02002025313070207C2025313070200A007C61
:101F12000053554D000925357320252D3231737C30
:101F220025313373253673202536692028253569F6
:101F3200290A0073746F7070656400736C65657054
:101F4200696E6700626C206D7574657800626C2042
:101F5200727800626C2073656E6400626C20726538
:101F6200706C7900626C20616E79666C00626C2024
:101F7200616C6C666C00626C206D626F7800626CE2
:101F820020636F6E640072756E6E696E67007065B5
:101F92006E64696E6700B302BB02C402CD02D30253
:101FA200DB02E402ED02F602FE0206030E03736890
:101FB200656C6C3A20696E636F727265637420712E
:101FC200756F74696E670068656C70004465736351
:101FD20072697074696F6E00436F6D6D616E64003B
:101FE200252D3230732025730A002D2D2D2D2D2DF8
:101FF2002D2D2D2D2D2D2D2D2D2D2D2D2D2D2D2D0F
:102002002D2D2D2D2D2D2D2D2D2D2D2D2D2D2D2DFE
:102012002D007368656C6C3A20636F6D6D616E6440
:10202200206E6F7420666F756E643A2025730A0005
:102032007265626F6F74005265626F6F74207468AC
:1020420065206E6F6465007073005072696E747300
:1020520020696E666F726D6174696F6E2061626F66
:1020620075742072756E6E696E6720746872656130
:1020720064732E00B003B703B507C703CA03BA07D8
:082082000000000000000C004A
:040000030000011CDC
:00000001FF
